:100000000C9486020C94D21E0C94A3020C94A302AE
:100010000C94A3020C94A3020C94A3020C94A302CC
:100020000C94A3020C94A3020C94FF250C94D326E9
:100030000C9413210C94A3020C94A3020C94A3021D
:100040000C94A3020C94A3020C94A3020C94A3029C
:100050000C94A3020C94B6210C94A3020C94A3025A
:100060000C94A3020C94A3020C94A3020C94A3027C
:100070000C94A3020C94A3020C94A3020C94A3026C
:100080000C94A3020C94A3020C94A3020C94A3025C
:100090000C94A3020C94A3020C94A3020C94A3024C
:1000A0000C94A3020C94A3020C94A30238001E002B
:1000B0001F002000210022002D002B0014001A0038
:1000C0000800150017002841290004001600070049
:1000D00009000A002F00E1001D001B0006001900A6
:1000E00005003602E000340034023524E300260225
:1000F00022522A0027002600250024002300570052
:100100004800130012000C0018001C002841470092
:1001100039000F000E000D000B003000E5002E002E
:10012000370036001000110037023102640033003E
:100130003302E70027022C0001003A003B003C009C
:100140003D003E0001000100BD000000AD00AE001A
:10015000A90001000100BE000000AC00AB00AA0035
:100160000100010076007B007C007D00A8000100FA
:1001700001000100010001000100010001002A004E
:1001800043004200410040003F000100540056007F
:10019000610060005F000000010055002E025E005B
:1001A0005D005C000000010053002D025B005A005E
:1001B00059002800010001000100630062000100F5
:1001C0000100010001000100010001000100010027
:1001D00023520100D200CD00D100D300D90001008C
:1001E0000100CF00CE00D0000100DA0001000100C4
:1001F00001000100010001000100010001000100F7
:10020000010001000100010001004C00010001009B
:100210000100010001002352010001004D004B00CC
:100220004E004A000100010001004F005200510041
:100230005000010001000100010001000100010067
:1002400001000100010001000100010001000100A6
:10025000000000000000000000000000010000009D
:10026000000000000000000000000000000000008E
:1002700021782378257827780100000020782278DB
:100280002478267828780100000000000000000093
:1002900001000100010001004C000000000000000E
:1002A000000001002A0000002E782D782C782B7891
:1002B0000000000000003278317830782F7801009B
:1002C000000000000000000000000000010000002D
:1002D0000000000000000100010001000001010118
:1002E00001010101010102020202020202020203F3
:1002F00003030303030303040404040404040505C3
:100300000505050606060606070707070708080885
:1003100008090909090A0A0A0B0B0B0C0C0C0D0D34
:100320000D0E0E0E0F0F0F101011111112121313CC
:100330001414151516161717181819191A1A1B1B45
:100340001C1D1D1E1E1F20202122222324242526A1
:1003500026272829292A2B2C2D2D2E2F30313232D9
:10036000333435363738393A3B3C3D3E3F404142E5
:10037000434445464748494A4C4D4E4F50515354CB
:10038000555658595A5B5D5E5F616264656668697F
:100390006B6C6D6F7072737577787A7B7D7E8082FF
:1003A000838587888A8C8E8F91939596989A9C9E48
:1003B000A0A2A3A5A7A9ABADAFB1B3B5B7BABCBE58
:1003C000C0C2C4C6C9CBCDCFD1D4D6D8DBDDDFE225
:1003D000E4E7E9EBEEF0F3F5F8FAFDFF0C03520069
:1003E000650064006F00780000001403460061009F
:1003F0006C0062006100740065006300680000002A
:100400000403090409023B00020100A0FA090400E8
:100410000001030101000921110100012240000730
:10042000058103080001090401000103000000091F
:100430002111010001227B00070582032000011227
:1004400001000200000008444D4452000101020076
:100450000105010902A10185020901A1000509198F
:10046000012908150025019508750181020501097A
:100470003009311581257F950275088106093815E7
:1004800081257F950175088106050C0A38021581C2
:10049000257F950175088106C0C005010980A1016D
:1004A000850319012AB700150126B70095017510BB
:1004B0008100C0050C0901A101850419012AA002CF
:1004C000150126A002950175108100C005010906DD
:1004D000A101050719E029E7150025019508750117
:1004E00081029501750881010507190029FF150092
:1004F00026FF009506750881000508190129059554
:100500000575019102950175039101C011241FBE6B
:10051000CFEFDAE0DEBFCDBF11E0A0E0B1E0EAE46A
:10052000F3E502C005900D92AC3BB107D9F723E08B
:10053000ACEBB1E001C01D92A430B207E1F70E941C
:1005400019150C944F290C9400008430B8F46A30CB
:10055000A8F4473098F450E097E0699F400D511D92
:100560001124FA0196E4899FE00DF11D1124EE0F8C
:10057000FF1FE455FF4F85919491089581E090E02D
:1005800008950E94A502089581E0089581E00895EC
:100590000E94C602089508950E94CB020895A5E026
:1005A000B0E0E5EDF2E00C94C92849835A8330911C
:1005B000C30189819A81311119C0662399F02223E0
:1005C00089F00E94E708182F682F89819A810E947C
:1005D000C30869817A81812F0E94B90F2596E3E0D3
:1005E0000C94E5280E94D508182FF3CF0E94E70845
:1005F00069817A81F1CFFC01262F4081518162818E
:10060000738184810E94CF02089581E00895CF9381
:10061000DF93EC0160E00E94FB02BE010E94CC026D
:10062000DF91CF91089508950E9492070E941303CD
:100630002FEF84E39CE0215080409040E1F700C020
:10064000000008950E9414030E94DA2108950E9478
:1006500014030E94EB2108950F931F93CF93DF9310
:100660008C0161E00E94FB02EC01B8010E94C8020B
:10067000811106C080E0DF91CF911F910F91089505
:10068000B801CE010E94F01D8823A1F3B801CE016C
:100690000E943A1B882371F3B801CE010E94621DAB
:1006A000882341F3B801CE010E949F1A882311F3D9
:1006B000F8018281882361F0C330FCE7DF07E9F0AD
:1006C00058F4C115ECE7DE07A9F0C130DC47B9F0FA
:1006D000C8010E94C402CFCFCB358CE7D807A9F060
:1006E000CC35ECE7DE0771F0CA35DC4789F70E94AC
:1006F000180DEECF0E942203BDCF0E94200D0E9454
:100700002703B8CF0E940E0DE3CF0E941C0DE0CF4F
:100710000E94F0200E94AF0308950E94B3030E943C
:10072000F5200895089581E008950895CF93DF930B
:10073000D82F0E949303C82F882319F08D2F0E9471
:1007400095038C2FDF91CF9108950895CF93C82FF3
:100750000E9492038C2F0E949603CF91089580E00F
:100760000E94A60308950E94F81F0E94A603089500
:10077000CF930E94F81FC82F8091BE018C1779F08B
:10078000C093BE010E947F216093BF017093C0019E
:100790008093C1019093C2018C2F0E94A603CF9138
:1007A0000895ABE0B0E0E7EDF3E00C94CA284F8386
:1007B000588769877A878B8761110E94590C1E823E
:1007C0001D8285E0FE013796DE01119601900D92A3
:1007D0008A95E1F78C819D81892B61F449815A8149
:1007E0006B817C818D819E810E94810B2B96E2E042
:1007F0000C94E62889819A8189238F3F79F3CE0171
:1008000001960E9405038111E9CFF0CFFC018081A0
:1008100091810E9419090895662329F00E949D156F
:100820000E94701608950E94F715FACFCF93C82F33
:100830008823C9F08238C9F40E94F81F81FD13C0D3
:1008400089E30E94110C0E947A0C2FEF87EE93E04F
:10085000215080409040E1F700C0000089E30E94F1
:10086000190C0E947A0CCF9108958338A1F40E944C
:10087000F81F80FDF8CF83E50E94110C0E947A0CCE
:100880002FEF81EE94E0215080409040E1F700C0CE
:10089000000083E5E4CF8438A1F40E94F81F82FDB4
:1008A000E2CF87E40E94110C0E947A0C2FEF81EEB8
:1008B00094E0215080409040E1F700C0000087E4C0
:1008C000CECF8CEF8C0F813AB8F48C2F0E94A71CEE
:1008D0008111C9CF6C2F80910001909101010E947C
:1008E0008120882329F08C2F0E94190C0E947A0CF9
:1008F0008C2F0E94110CB5CF80E28C0F883048F409
:10090000C77081E001C0880FCA95EAF70E943C0CCD
:10091000A8CFEBE5EC0FE33040F4F0E0E159FE4FF7
:10092000808190E00E9425209ECFE8E5EC0FEB311E
:1009300050F4F0E0EE0FFF1FE75CFE4F80819181E5
:100940000E944A2090CF83E38C0F833108F08BCF35
:1009500061E08C2F0E940C0486CF882309F456C0D6
:10096000823879F40E94F81F81FF50C089E30E9409
:10097000110C0E947A0C89E30E94190C0E947A0CD7
:100980000895833859F40E94F81F80FF3FC083E523
:100990000E94110C0E947A0C83E5EECF843859F442
:1009A0000E94F81F82FF32C087E40E94110C0E944F
:1009B0007A0C87E4E1CF9CEF980F913AE8F290E24D
:1009C000980F983050F4877091E001C0990F8A9584
:1009D000EAF7892F0E94420CD1CF9BE5980F933004
:1009E00028F490E080E00E942520089598E5980F73
:1009F0009B3128F490E080E00E944A20089593E320
:100A0000980F933118F460E00E940C0408951F932E
:100A1000CF93DF93182FEB010E941604209739F42F
:100A2000812F0E94AD04DF91CF911F9108958FE92E
:100A30009FE00197F1F700C000002197EFCF70E031
:100A400060E0893311F460E570E00E9407050895C5
:100A5000882321F00E943C0C0E947A0C0895882380
:100A600021F00E94420C0E947A0C0895B0E0A0E0B0
:100A7000ECE3F5E00C94C3286C01D62FC72FFC01E2
:100A80001281058102950F700E94320CE82E882396
:100A9000E9F0E12E1123D1F08C2F807F803451F0CA
:100AA00080E28D0F8830F8F0011104C08C2F807E19
:100AB0008032C9F08091AD0282FF15C082E00E94B1
:100AC000DD0C0E94320C91E0E82EE926BC2EB29497
:100AD0009FE0B922FBE0FB15B8F1EB2DF0E0EF5AF7
:100AE000F64D0C94B428E12CF1CF0C2F0F70C07F81
:100AF00011F00295007F112399F0002359F080E254
:100B00008D0F883010F0D11107C0802F0E943C0C4F
:100B10000E947A0C8D2F63C0802F0E944C0CF8CF5E
:100B20008D2F0E94AD04002379F080E28D0F883074
:100B300010F0D11104C0802F0E94420C03C0802FFE
:100B40000E94520C0E947A0C2B2D2850330B24301B
:100B5000310520F40E94F81F0E94A603EE2089F0C0
:100B60000E942E0C80FD0DC0F60112820E94280CFE
:100B70000E942108C6010E9452070E94280C0E9470
:100B80003108CDB7DEB7E9E00C94DF282C2F2F70A9
:100B9000F22EC07FC03219F0F29480EFF822DD23EC
:100BA00081F0D13009F449C0112309F451C0002368
:100BB00009F448C0F601858180FFACCF8F70858332
:100BC00041C08091AD0282FD15C0112359F0FF2074
:100BD00029F08F2D0E943C0C0E947A0C80E00E942C
:100BE0001604B2CF80E00E94AD04FF2009F4ACCF20
:100BF0008F2DA2CF112381F0011106C00E945C0C41
:100C00008F290E942805A0CF0130C1F70E945C0CFB
:100C10008F290E94630C98CF011106C00E94700CAE
:100C20008F2D0E942F0590CF013009F48DCF8F2D8D
:100C30000E942F050E94700C87CF112329F00630E7
:100C400008F082CF8F2DDDCF053008F07DCFE8CFC3
:100C5000002331F3D93349F4FFEF27EE33E0F150AD
:100C600020403040E1F700C000008D2F0E94AD040D
:100C70006BCF8C2F86958695837069F0813009F053
:100C800063CF8D2F9C2F9370111102C080E090E0F4
:100C90000E944A2059CF8D2F9C2F9370111102C0B2
:100CA00080E090E00E9425204FCF612F8D2F0E9481
:100CB0000C044ACF8C2F8370A1F5111145CF4D2F15
:100CC000429546954770440F440F2D2F2F7030E00A
:100CD000042E02C0220F331F0A94E2F790E080E056
:100CE000D4FF09C08FE090E002C0880F991F4A9599
:100CF000E2F780959095C695C695C370822B932B8D
:100D0000C23049F058F4C13019F00E94F1071CCFED
:100D10000E94E80719CF0E94FA0716CF0E94E50744
:100D200013CF8695112311F08C2F8170882309F43D
:100D30000BCF4D2F429546954770440F440F2D2FF2
:100D40002F7030E0042E02C0220F331F0A94E2F706
:100D500090E080E0D4FF09C08FE090E002C0880FEF
:100D6000991F4A95E2F780959095C695C695C370F0
:100D7000822B932BC23049F058F4C13019F00E94F5
:100D80005C08E2CE0E945308DFCE0E946508DCCEEC
:100D90000E940908D9CECF70112329F08C2F0E9410
:100DA00021088D2F2ECF8D2F0E942F058C2F0E9472
:100DB0003108CACED23F41F160F4D03FB9F0D13F03
:100DC00081F0112309F446C00111A4CE8C2F8F713C
:100DD0001FC0D33F01F1D43FA1F78091AD0282FD46
:100DE00024C08C2F8F71112311F312C0112341F0F5
:100DF000053008F0A9CE8C2F8F710E944308A4CE35
:100E0000063008F0A1CEF7CF8C2F8F711111CFCF04
:100E10000E94210899CE112329F08C2F8F710E94F6
:100E2000150892CE0E9410088FCE112349F0CF7181
:100E30008C2F0E94210863E08C2F0E94BF0C84CE6F
:100E400081E00E94DD0C023008F47ECE82E00E9438
:100E5000DD0C7ACE002359F0D93309F006CF8FEF9D
:100E600097EEE3E081509040E040E1F7FCCE8C2F1C
:100E70008F719DCF0F931F93CF93DF93EC01688108
:100E800079818A810E9424098C010E946E080E9447
:100E9000E407B801CE010E943605DF91CF911F9182
:100EA0000F910895CF93DF93EC018B819C81892B67
:100EB00029F08881998189238F3F51F4DF91CF9167
:100EC0000895CE010E943A07CE010E940703F6CF93
:100ED000CE010E942C038111F4CF0E94320C882392
:100EE00069F38A81882351F38091AD0282FFE6CFB6
:100EF00082E00E94DD0CE2CF90E080E00E9425209D
:100F000090E080E00E944A200E94590C0E947A0CD6
:100F10000E948C160E94701608950E94210C0E9457
:100F20007C0708950E94490C0E948D0708959295B0
:100F30009F70963091F058F4925F9F70923058F401
:100F4000803F19F030F4883E30F481E008959A5FD4
:100F5000F4CF843FD1F380E00895883EB0F3813F21
:100F6000D1F7F3CFFC0183819481892B29F0808113
:100F7000918189238F3F11F480E0089580819181D0
:100F80000E9419090E9497070895A5E0B0E0EBECD4
:100F9000F7E00C94CA282596E2E00C94E628A6E037
:100FA000B0E0E5EDF7E00C94CA282696E2E00C9458
:100FB000E62808950E94D90708950E94DA079093C1
:100FC000EB018093EA01089508950E94DD070895DA
:100FD0002091EA013091EB01822B932B0E94DD07D7
:100FE00008952091EA013091EB01822393230E941E
:100FF000DD0708952091EA013091EB0182279327C4
:101000000E94DD0708950E94D90708950E940308F1
:1010100008950E9406089093E9018093E8010895DD
:1010200090E080E00E940908089521E030E0A901E5
:1010300002C0440F551F8A95E2F7CA010E940908B1
:10104000089521E030E002C0220F331F8A95E2F7B5
:101050008091E8019091E901822B932B0E9409086D
:10106000089521E030E002C0220F331F8A95E2F795
:10107000209530958091E8019091E9018223932396
:101080000E940908089521E030E002C0220F331FBA
:101090008A95E2F78091E8019091E90182279327F0
:1010A0000E94090808952091E8013091E901822BFE
:1010B000932B0E94090808952091E8013091E901DD
:1010C000822393230E94090808952091E80130911A
:1010D000E901822793270E94090808950895262F81
:1010E000277091E001C0990F2A95EAF723E07695E1
:1010F00067952A95E1F7660F771F660F771FFA014C
:10110000E60FF71F50E040E0682F70E08191DF01AB
:1011100011979B01042E02C0369527950A94E2F799
:10112000217021952827292328272C934F5F5F4F73
:101130004430510559F70895A82FA77023E09695DC
:1011400087952A95E1F7880F991F880F991FFB0152
:10115000E80FF91F50E040E080E0219130E00A2ED6
:1011600002C0369527950A94E2F721703327042EA2
:1011700001C0220F0A94EAF7822B4F5F5F4F443081
:10118000510559F70895262F9A3070F4873060F48E
:10119000682F70E087E0989F600D711D112444EC6A
:1011A00051E0822F0E946F080895292F9A3068F429
:1011B000873058F490E064EC71E037E0239F800DB5
:1011C000911D11240E949C08089580E00895B0E0CC
:1011D000A0E0EDEEF8E00C94C3287C010091E8015A
:1011E0001091E9018091EA019091EB01082B192BF4
:1011F000CFE0D0E0CC24C394D12CBC2EC6010C2E61
:1012000002C0880F991F0A94E2F780239123892B4B
:1012100049F4219790F7B12C8B2DCDB7DEB7E9E0DB
:101220000C94DF28B7018C2F0E94C50F019789F31A
:10123000F3CFCF93DF93EC010E94E708BE010E9439
:10124000C50FDF91CF9108951F93CF93DF93EB01EB
:101250009091C301992339F0CB010E941909DF91C4
:10126000CF911F910895882369F0CB010E94E70870
:10127000182F682FCE010E94C308BE01812F0E9443
:10128000C50FEDCFCB010E94D508182FF6CF1F93C5
:10129000CF93DF93C091EC0116E08091ED018C13A8
:1012A00004C0DF91CF911F910895D0E01C9FF00101
:1012B0001D9FF00D1124E251FE4F4081518162814A
:1012C0007381848195810E94CF072196C770E5CFF5
:1012D00040911E0250911F026091200270912102E4
:1012E00080912202909123020E94CF0708952091BD
:1012F000EC019091ED0156E0291302C080E00895C1
:1013000030E0529FF001539FF00D1124E251FE4F47
:101310007181761306C07081781303C072817413D3
:1013200004C02F5F3F4F2770E7CF81E008951F93E0
:10133000CF93DF9380912302807F09F04BC080918F
:101340002002882309F446C08091EC01C091ED0190
:1013500040911E0250911F02609121027091220261
:10136000D42FD52316E0C817A9F190E061157105B7
:10137000A9F1DF3F99F1189FF001199FF00D112499
:10138000DF01A251BE4F11962C911197251326C053
:101390002C91241323C012962C91129721111EC058
:1013A00013962D913C91261B370B283C3105B0F448
:1013B000809123028F70806180932302ED50FE4F55
:1013C00080818F70806180838EE192E00E9452075D
:1013D0000E944709DF91CF911F9108950196877070
:1013E000C2CFA1E1B0E0E7EFF9E00C94C0288C0196
:1013F00085E0F801DE011D9601900D928A95E1F7D6
:10140000F801F2808EE1A82E82E0B82E40912102F0
:10141000509122024115510509F45AC190911E02C2
:1014200020911F02892F82238F3F09F451C1C08070
:10143000D18083809480E0902002B401641B750BFE
:10144000EE2009F4F6C080912302382F307F683CEB
:10145000710508F0AFC031117AC0EF2C2D1116C004
:101460009C1114C0F11012C08F7080618093230210
:101470000E946809C5010E94520780912302F80169
:1014800085838E2D6196ECE00C94DC288114910408
:10149000C9F18C2D8D218F3FA9F181E08F2580FF2F
:1014A00005C04F2D6D2D8C2D0E947709811491045C
:1014B00059F18C2D8D218F3F39F181E08F25F82F47
:1014C000F170BF2E80FF39C04F2D6D2D8C2D0E94E5
:1014D0007709A82E811131C0CD86DE868D859E8547
:1014E0000E941909292F22952F70243078F49F70BB
:1014F0002230A8F09923B9F0F8019581907F99F4F2
:10150000EA2CBFCF80E0CBCF80E0D9CF2A5F2F700D
:10151000223068F0C8010E945207AB2CF1CF99230A
:1015200011F0882369F3805E883050F3F3CF803F59
:1015300038F3815F833070F7E3CFFF2009F4A1CF48
:1015400080912302816080932302E12C9ACF2D1198
:1015500005C09C1103C0FF2009F486C0C8010E9489
:10156000B207882319F1FF2009F18091230280320C
:1015700070F020911E0230911F0238872F83198648
:101580009B868A868C87CE0107960E94520786E04A
:10159000F801AEE1B2E001900D928A95E1F70E9468
:1015A00097090E946809EE24E3946BCFC8010E945A
:1015B0005207F9CF311114C0782D998A888AA60173
:1015C0006F2D89890E94C5078EE192E00E94520723
:1015D00086E0F50111928A95E9F70E946809B5CF76
:1015E0002D110EC09C110CC0F1100AC08583C801DA
:1015F0000E94520786E0F50111928A95E9F741CFE2
:10160000C8010E94B207882389F2FF2079F28091F5
:101610002302803208F4BBCF20911E0230911F02BA
:101620003A8329831B829D828C828E83CE01019610
:10163000ACCF683C710508F03DC0EF2CFF2009F4E9
:10164000B5CF2D1129C09C1127C08091230280FDA8
:101650001AC0982F907FB9F08583903F31F0982F72
:10166000907F905F8F70892B8583C8010E945207FD
:1016700086E0F801AEE1B2E001900D928A95E1F7C3
:101680000E946809FECE86E0F801AEE1B2E001906A
:101690000D928A95E1F7F5CEC8010E94B20781113B
:1016A00076CF80912302816080932302C8010E943B
:1016B0005207E7CE782D998A888AA6016F2D8989ED
:1016C0000E94C50786E0F50111928A95E9F7D8CF07
:1016D000FF2009F46BCFC8010E94B207E82E8823CF
:1016E00009F464CF86E0F801AEE1B2E001900D921A
:1016F0008A95E1F78EE192E00E9406040E94970924
:10170000BFCFACE0B0E0E7E8FBE00C94C9284F8322
:10171000588769877A878B879C87CE0107960E94B6
:10172000F1098823B1F08A859B85892B39F04F8197
:101730005885842F85238F3F09F06CC016E0809177
:10174000EC019091ED01891343C02C96E3E00C94D9
:10175000E52886E0FE013796DE01119601900D9294
:101760008A95E1F78A859B85892B41F38F8198853E
:1017700089238F3F19F32091ED0130E0C9010196D3
:10178000877099274091EC014817190671F40E945F
:1017900092071092ED011092EC0186E0EEE1F2E08A
:1017A000DF011D928A95E9F7C9CF96E0929FD0019B
:1017B000939FB00D1124A251BE4FFE0131960190AE
:1017C0000D929A95E1F78093ED010E944709B6CFFB
:1017D000819FC001112482519E4F0E94F1098823EC
:1017E00009F4B3CFE091EC011E9FF0011124E25106
:1017F000FE4F4081518162817381848195810E9475
:10180000CF078091EC0190E0019687709927809333
:10181000EC0195CF69857A858B859C850E94CF07E1
:101820008DCF682F80910001909101010E94B72017
:101830000895682F80910001909101010E94BA20C3
:10184000089580910001909101010E94BD200895AA
:1018500080912C02859585958595089580912C021F
:101860008770089590912C02977081E009F480E0D0
:10187000089580913702089590913702892B8093C3
:1018800037020895809590913702982390933702FC
:10189000089510923702089590913602892B809313
:1018A00036020895809590913602982390933602DF
:1018B000089510923602089580912D02089508959A
:1018C0000E945F0C08959091AD0292FF08C0909124
:1018D0002D02981721F080932D020E94600C08952C
:1018E00080912D02882329F010922D0280E00E9421
:1018F000600C0895CF93DF93E0910001F091010116
:10190000809137028083E0910001F0910101808194
:1019100090913602892B808390912D02992381F03A
:10192000E0910001F09101018081892B80838091F9
:101930000001909101010E946F2081110E94700CA2
:10194000C0910001D091010148E050E064E272E0F2
:10195000CE010E94F128892B59F088E0FE01A4E213
:10196000B2E001900D928A95E1F7CE010E940C2021
:10197000DF91CF91089508950E94BB0C0895909136
:10198000AD0292FF11C098E0899F90011124622B53
:1019900060932C020E94210880912C0285958595E8
:1019A00085950E94BC0C08950E942108089510920C
:1019B0002C0280E00E94BC0C089590912C0280952E
:1019C000892380932C02282F277091F4282F082E2A
:1019D000000C330B9217130659F09091AD0292FF51
:1019E00007C08595859585950E9431080E94D70C82
:1019F00008959091AD0292FB222720F9281769F0F3
:101A000080FB92F99093AD028091AC029091AD026F
:101A10000E94410D82E00E94DD0C08958091AD028C
:101A200082FB882780F991E089270E94F90C0895AC
:101A300081E00E94F90C089580E00E94F90C08955D
:101A40006FEF7FEF90E080E00E943929089590E0E9
:101A500080E00E94152921E0873E9E4F09F020E09A
:101A6000822F089582E090E00E940729089583E084
:101A700090E00E940729089584E090E00E941529D3
:101A80000895BC0184E090E00E9439290895AB01DB
:101A9000BC018FE090E00E942D290895AB01BC01AC
:101AA00083E190E00E942D29089560E070E0CB0171
:101AB0000E944E0D089560E070E0CB010E94470D3A
:101AC0000E94550D089567EE7EEF90E080E00E9441
:101AD000392960E082E090E00E941B2960E083E009
:101AE00090E00E941B291092EB011092EA0160E045
:101AF00074E184E090E00E94392960E086E090E0A3
:101B00000E941B296FEF87E090E00E941B2940E0B4
:101B100050E0BA0188E090E00E942D2960E08DE05D
:101B200090E00E941B2940E050E0BA0188E190E07B
:101B30000E942D2960E087E190E00E941B2940E08F
:101B400050E0BA018CE190E00E942D2970E060E045
:101B500080E290E00E94392940E050E0BA0188E13B
:101B600090E00E942D290E945B0D08950E94630D54
:101B70000895682F8EE090E00E941B290895A5E04B
:101B8000B0E0E5ECFDE00C94C8280E9473218C01C4
:101B9000809138029091390280179107A1F08FEF60
:101BA00089838A831B820E9473218160782F9D83A1
:101BB0008C8349815A816B818D810E94D10310935E
:101BC0003902009338022596E4E00C94E4280E9440
:101BD0007F21609348027093490280934A02909358
:101BE0004B026093440270934502809346029093A7
:101BF00047020895089508950E94FB0D08950895E1
:101C00000E94FF0D089581E008958FEE90E10E94FB
:101C1000EE1F0E94FA0D0E94FC0D08950E94BB1257
:101C20000895089508950E94110E0E94120E0895BD
:101C30000E94F2100E94A50308950E946A210E944A
:101C4000AF100E94D6120E941C120E94180E0E9411
:101C5000221B0E94291A0E94E0120E94000E089581
:101C6000A5E0B0E0E6E3FEE00C94C2280E94030E7B
:101C700081110CC00E94BF0D0E94BB120E94AE16C3
:101C80000E94B8032596EAE00C94DE280E943F12D9
:101C90008AE3A82E82E0B82E750110E0F7010191C9
:101CA0007F01812F0E9418111F5F1A3009F440C074
:101CB0000817A1F380914C0281FD0E941E110E9421
:101CC0000E0EC82E10E0812F0E941811082FF5016A
:101CD00081915F01081731F1F12CEE24E394D02EAD
:101CE000D8268D2D8E21B1F0CC20A1F0F9821A8357
:101CF00091E0802F8E2109F490E09B830E94732154
:101D00008160782F9D838C8349815A816B818D817D
:101D10000E94D103F394EE0CF7E0FF12E2CFF5013D
:101D2000319700831F5F1A3071F60E94E70DA4CF30
:101D30000813C0CF9FCF1F93CF93DF930E94CA0F8A
:101D4000EC01C11580E5D807F0F5C11580E4D8078E
:101D500008F09CC0C03ED10520F5CD3CD10508F06F
:101D600082C0C83AD10578F4C53AD10508F073C0ED
:101D7000C130D10519F1209709F1C430D105F0F433
:101D8000D0E0C0E01BC0C33CD105D0F7C85AD0E0BA
:101D9000CC0FDD1FCE58DE4F0990D881C02DD46402
:101DA0000DC0C11580E2D80708F0D1C0C11581E08F
:101DB000D80708F05AC0C83ED10510F7CE01DF9110
:101DC000CF911F910895C03682E5D80718F5C03429
:101DD00082E5D80708F06BC0C03282E5D80708F06A
:101DE0005FC0C11582E5D80708F497C02C2F26954F
:101DF000269580E2289F900111248C2F8370C1E0EA
:101E0000D0E002C0CC0FDD1F8A95E2F7C22BD32BA6
:101E1000DD68D4CFC03A82E5D80760F4C03882E5E7
:101E2000D80708F459C0CF71D0E0DC2FCC27C46F9D
:101E3000D06AC4CFC03C82E5D80708F462C0C03E77
:101E400082E5D80708F09CCFDC2FCC27CC27DF71A8
:101E5000C06FD06AB3CFC55AD0E0C855DE4FC88135
:101E6000D0E0D064ABCFD065A9CF8D2F0E946C108D
:101E7000182FCE0199270E94CA0FC12FD0E0DC2F66
:101E8000CC27CC27DF71C82BD92B98CFCE0199272F
:101E90000E94CA0FCC27DF70C82BD92BD06A8ECFF7
:101EA000CF71D0E0DC2FCC27C16FD06A87CF2C2F29
:101EB00026952695277080E2289F900111248C2F6B
:101EC0008370C1E0D0E002C0CC0FDD1F8A95E2F73D
:101ED000C22BD32BDC6872CF2C2F2695269527702A
:101EE00080E2289F900111248C2F8370C1E0D0E004
:101EF00002C0CC0FDD1F8A95E2F7C22BD32BDA6824
:101F00005DCF8C2F8F710E946C10C82FD0E0DC2F1A
:101F1000CC27CC27DF71D06251CF8C2F8F710E94DC
:101F20006C1055E0D695C7955A95E1F7CF70D0E083
:101F3000DC2FCC27282F30E084FF05C044E0220F9F
:101F4000331F4A95E1F7C22BD32BD06937CF8D2FA2
:101F50008F710E946C10182FCE0199270E94CA0F12
:101F6000C12FD0E0DC2FCC27CC27DF71C82BD92B99
:101F7000D2CF462F7A3030F4673020F4672F0E949A
:101F8000C102089590E080E008950E94B90F0E9478
:101F90009B0E089582389105B9F1B0F48133910513
:101FA00009F47DC048F48932910509F46DC08A3284
:101FB000910509F47BC008958533910509F45FC04C
:101FC0008933910509F10895833E9105D9F138F4DB
:101FD000803E910529F1823E910579F10895863E72
:101FE0009105D9F1873E910509F43EC0843E9105E3
:101FF00041F52091AD0221FF24C08091AC0284FD07
:1020000019C087EE90E008952091AC02237009F08A
:102010005AC02091AD0223FF14C089E290E00895D8
:102020002091AC0220FD38C03091AD0230FF09C0D4
:1020300024FF43C090E080E008952091AC0222FD8F
:10204000F7CF08952091AC0222FD3AC03091AD0245
:1020500030FD39C024FFF5CFEDCF2091AC0223FF36
:10206000F0CF24FDE7CFCDCF2091AC0223FD2EC0D1
:102070003091AD0231FFEECF84EE90E008952091D3
:10208000AC0225FFDECFC9CF2091AC0225FD21C0D7
:102090002091AD0223FFD5CF89E390E0D2CF2091EC
:1020A000AC0226FFCECF8AE290E008952091AC02E8
:1020B00026FFC7CF81E390E0089583EE90E0089576
:1020C00082EE90E0089580EE90E0089586EE90E034
:1020D000089585E390E008959091AC0292FF06C0C8
:1020E000282F28712830F9F4877F846093FF06C079
:1020F000282F28712831F1F4877E84612091AD0268
:1021000020FF06C0382F38713830D9F4877F8160BE
:1021100021FF06C0282F28712831D1F4877E8161E4
:1021200094FD877E0895282F24712430F9F68B7F43
:102130008860DCCF282F2471243101F78B7E8861E1
:10214000DDCF382F3171313019F78E7F8860E0CFC5
:10215000282F2171213121F78E7E8861E1CF1092E5
:10216000A8021092A9021092AA021092AB0208953E
:10217000CF92DF92EF92FF926B017C010E94BB1223
:1021800081110EC00E947F21C61AD70AE80AF90AF7
:10219000C092A802D092A902E092AA02F092AB02E9
:1021A000FF90EF90DF90CF9008950F931F930E94C0
:1021B000BB12882329F00E947F211F910F9108955F
:1021C0000E947F210091A8021091A9022091AA02E9
:1021D0003091AB02600F711F821F931FEECF80E022
:1021E000089508950E94270D811102C00E94B60D26
:1021F0000E94320D80934C020E943C0D9093AD02E0
:102200008093AC020E94F1100E94370D90E00E9472
:10221000E5078091E8019091E9010E940608089580
:1022200008950E941011089508950E9414110895B0
:10223000E82FF0E0E754FD4F80810895089580EA8B
:102240008A95F1F7089500C008950E941F1108951E
:1022500008950E9428110895A5E0B0E0E2E3F1E1BD
:102260000C94C6280E94BB12F82E6091C3028823EA
:1022700009F440C085E0E82E8E010F5F1F4FF80182
:102280008E2D11928A95E9F7862F90E0B801875438
:102290009D4F0E94EE128823B9F08091AE0290E02B
:1022A00045E050E0B80187549D4F0E94F12821E09D
:1022B00020934D02892B91F4F12C0E9415118F2D42
:1022C0002596E6E00C94E22880914D028823A1F344
:1022D000F8011192EA94E9F710924D02A091AE0232
:1022E000B0E0A754BD4F85E0F80101900D928A95AA
:1022F000E1F7E3CF70E067547D4F8091AE0290E04C
:1023000087549D4F0E9475130E942911D8CFF894CD
:10231000E82FE295EF70F0E031A1282F2F7081E0D7
:1023200090E001C0880F2A95EAF7982F90959323A3
:1023300091A392A1892B82A3789408950F931F9360
:10234000CF93DF93C2EBD1E089918F3F11F00E94D0
:10235000871181E0C73BD807B9F7CBEAD1E002EBA0
:1023600011E089918F3F11F00E9487110C171D0712
:10237000C1F7DF91CF911F910F910895B0E0A0E0D8
:10238000E4ECF1E10C94C428EC01D62E062F10E009
:10239000C8018E549E4F7C01FC0180818F3F09F45F
:1023A00044C0F894E82FE295EF70F0E091A18F70AF
:1023B00021E030E001C0220F8A95EAF7892F822BB5
:1023C00081A382A12095282322A378940E9423111F
:1023D000EBEAF1E031E0C12C21912F3F59F1A22F1E
:1023E000A295AF70B0E090968C9190E02F7002C0F3
:1023F000959587952A95E2F780FD1CC0832FC82A02
:10240000330F81E0E23BF80739F7F70180818F3F16
:1024100011F00E94871161E0C11001C060E08D2DB4
:102420000E942511C00FD11FC882CDB7DEB7E8E0EA
:102430000C94E02880E0E3CF8091020180910201BA
:1024400095E0811190E09093C30285E0891B809311
:10245000AE020E949E118AE0E9EBF2E0DF01982FC4
:102460001D929A95E9F7EFEAF2E0DF011D928A9555
:10247000E9F785E00E947D120E9411110895AAE0FB
:10248000B0E0E5E4F2E10C94C7288E010F5F1F4F26
:102490008AE0F80111928A95E9F7F12C6F2DC801B5
:1024A0000E94BE11F394F5E0FF12F8CF4AE050E02D
:1024B000B8018FEA92E00E94F12821E0009709F428
:1024C00020E0892B41F08AE0F801AFEAB2E0019008
:1024D0000D928A95E1F76091C30270E067547D4FD9
:1024E00045E08FEA92E00E947E12182F0E942C1184
:1024F000812B2A96E5E00C94E3280895CF92DF9291
:10250000EF92FF920F931F93CF936C017B01042FE7
:10251000222349F081E0809350020E94732190931E
:102520004F0280934E02C0915002C1110AC0C0E018
:102530008C2FCF911F910F91FF90EF90DF90CF9054
:10254000089580914E0290914F020E948B21059731
:1025500070F310E0A801B601C7010E94F128892B91
:1025600041F0A801B601C7010E94FE281092500256
:10257000DFCFC0E0FBCF80915302811107C00E94E2
:102580007F28882351F081E08093530281E090916D
:102590005302913009F080E0089582E08093530265
:1025A0000E947A28F3CF0E94BB1208950E94D31292
:1025B000809302010E94BB1281110E94241308958E
:1025C0000E94BB12811102C00E942713089581E06E
:1025D000909154029A3008F080E008950F931F9371
:1025E000CF93DF93EC018B01809154028A30B8F4D1
:1025F000B801CE010E947213C82F811122C08091B0
:1026000054028F3FB9F40E94732190935202809339
:1026100051028C2FDF91CF911F910F9108958091DE
:102620005102909152020E948B21843F914000F709
:10263000C0E0EFCF8F5F809354028A3020F7C1E073
:10264000E8CF10925402E5CF0E948C1E08950E949C
:102650008F1E0895B0E0A0E0E0E3F3E10C94C528FC
:102660007901C82F880FDD0B41155105A9F0FE0136
:1026700093E0EE0FFF1F9A95E1F7ED5FFE4F81812A
:1026800092818B5A9D4F208130E04217530708F406
:102690009A01A9010E94FE28CE010E94781FD82E1F
:1026A0008823D1F001151105B9F083E0CC0FDD1FAF
:1026B0008A95E1F7FE01ED5FFE4F438150E004177C
:1026C000150708F4A801CD5FDE4F6C817D816B5A40
:1026D0007D4FC7010E94FE288D2DCDB7DEB7E7E004
:1026E0000C94E1280E949F1408950E94C01408953C
:1026F000A4E0B0E0EEE7F3E10C94C8286091740226
:102700007091750280917602909177020E949A21D1
:1027100011E0643671058105910518F10E94D5100C
:102720006E5F7F4F8F4F9F4F69837A838B839C832C
:1027300010E000E030E020E044E050E0BE016F5FD8
:102740007F4F82E00E942A13182F882351F00E94A5
:102750007F21609374027093750280937602909348
:102760007702812F2496E4E00C94E428B0E0A0E006
:10277000ECEBF3E10C94C2287C015B016A010E943E
:10278000E71201E010E0882311F00AE010E0C1E058
:10279000D0E0B501C701F6010995811104C0219669
:1027A0000C171D072CF4CDB7DEB7EAE00C94DE2839
:1027B000CC9F9001CD9F300D300D112490E080E032
:1027C00045E34A95F1F70000019682179307C1F798
:1027D000E0CFA8E0B0E0EFEEF3E10C94C828CE0122
:1027E00001960E94621A18856091780270917902B0
:1027F00080917A0290917B020E949A216436710541
:102800008105910510F41123C1F010E000E030E0E3
:1028100020E048E050E0BE016F5F7F4F83E00E9400
:102820002A13882369F00E947F21609378027093B5
:10283000790280937A0290937B020E945F1A81E072
:102840002896E4E00C94E428A6E0B0E0EAE2F4E1A3
:102850000C94C2287B01C090B701D090B80101E070
:1028600010E09E012A5F3F4F50E040E070E060E0E2
:1028700080E00E942A13182F882309F448C05601CB
:102880008FEFA81AB80A609170027091710280915E
:102890007202909173020E949A216436710581053B
:1028A000910568F105E010E09E012F5F3F4F50E079
:1028B00040E070E060E081E00E942A13D82E65E0DD
:1028C00070E0C5010E94231B11E09E81981310E067
:1028D0001D2141F10E947F2160937002709371026B
:1028E000809372029093730285E0FE013196ABE60D
:1028F000B2E001900D928A95E1F711E013C065E016
:1029000070E0C5010E94231B9E818913CBCF85E017
:10291000F6013196DE01119601900D928A95E1F74C
:102920001111E2CF85E0EBE6F2E0D70101900D92C4
:102930008A95E1F7812F2696EAE00C94DE280F9322
:102940001F93CF93DF93EC018B0144E254E10E948B
:10295000B613811106C080E0DF91CF911F910F91D6
:10296000089548E753E1B801CE010E94B6138823C9
:1029700091F349EE53E1B801CE010E94B613ECCFBA
:10298000A8E0B0E0E6ECF4E10C94C4280091B701B3
:102990001091B801C801019625E0FB01DC0101900E
:1029A0000D922A95E1F765E070E00E94231BF80183
:1029B00080836681778180859185C0906702D09001
:1029C0006802E0906902F0906A026C157D058E0540
:1029D0009F0551F0609367027093680280936902CB
:1029E00090936A020E94B81088E0F8013A96DE01DE
:1029F000119601900D928A95E1F7F801118A888568
:102A0000882329F060E0CE0101960E94751A28966D
:102A1000E8E00C94E0280E9450230E941D0E0E94C2
:102A20005D2308950E9462230E94300E0E947C2341
:102A300008950E940C210E9436230E94050E0E94D8
:102A40000B150E9412150E94130EFBCF809182027B
:102A500080FF0DC06091280170E0660F771F60381D
:102A6000710570F56115710569F1862F089581FF73
:102A700007C06091280184E0689FB0011124EFCF66
:102A80006091280182FD0AC0809181028823A9F00B
:102A90002091270160912801821710F088E0ECCF87
:102AA000869FC001112433E0880F991F3A95E1F702
:102AB000622F70E00E94A028D2CF68E070E0D5CFEE
:102AC0008FE7089581E008958091820280FF0CC015
:102AD0006091240170E0759567957595679561150E
:102AE000710549F1862F089581FF06C06091240188
:102AF00070E075956795F3CF6091240182FD0BC05E
:102B0000909180029923A1F060912301809124018A
:102B1000961738F0682F70E06038710500F38FE782
:102B20000895899FC001112470E00E94A028F4CF6D
:102B300061E070E0D7CF81E008958D3C31F40E94D0
:102B4000261581958093860208958E3C19F40E9483
:102B50002615F8CF8F3C31F40E942615819580937D
:102B600085020895803D19F40E942615F8CF893D0D
:102B700029F40E9464158093870208958A3D21F408
:102B80000E9464158195F7CF8B3D31F40E94641546
:102B900081958093880208958C3D19F40E946415F4
:102BA000F8CF9FE2980F983070F4815D990B21E087
:102BB00030E001C0220F8A95EAF780918402822BCF
:102BC0008093840208958D3D31F48091820281606A
:102BD0008093820208958E3D21F48091820282606A
:102BE000F7CF8F3DB9F7809182028460F1CF409199
:102BF00085028D3C59F48091860287FF0DC01092AA
:102C0000860241110BC01092810208C08E3C81F4F3
:102C10008091860218169CF3442381F080918702EC
:102C200090918802892B09F05AC010928002089571
:102C30008F3C49F447FFF0CF1092850280918602C5
:102C40008111ECCFE0CF803D19F41416ACF3E4CF42
:102C500090918702893D29F41916F4F610928702A3
:102C6000DBCF8A3D19F497FFD7CFF8CF9091880238
:102C70008B3D29F497FFD0CF10928802CDCF8C3DA9
:102C800019F41916CCF3C8CF9FE2980F983090F43E
:102C9000815D990B21E030E0B90102C0660F771F1A
:102CA0008A95E2F7CB0180959091840289238093E5
:102CB0008402B2CF8D3D31F4809182028E7F809369
:102CC0008202AACF8E3D21F4809182028D7FF7CFC0
:102CD0008F3D09F0A1CF809182028B7FF0CF0895C4
:102CE0000E9473219C019091850280918602982B0D
:102CF00021F030937F0220937E0290918702809191
:102D00008802982B21F030937D0220937C0283E887
:102D100092E00E941720089586E0E3E8F2E0DF01E8
:102D20001D928A95E9F7109281021092800210920A
:102D300082020895FC01828181110EC0838181117C
:102D40000BC08481811108C091E08581811101C08F
:102D500090E0892F8170089581E0FCCFA6E0B0E07B
:102D6000E4EBF6E10C94C92886E0E3E8F2E0DE014A
:102D7000119601900D928A95E1F7109285021092BA
:102D8000860210928702109288028B819C81892B87
:102D900089F080917E0290917F020E948B21AC018C
:102DA000909181029923C9F1809129018417150618
:102DB00008F440C08D819E81892B91F080917C0226
:102DC00090917D020E948B21AC0190918002992309
:102DD00009F471C0809125018417150608F479C0A3
:102DE000BE016F5F7F4F83E892E00E94C420811193
:102DF00005C083E892E00E949A1681110E94701625
:102E000086E0FE013196A3E8B2E001900D928A952A
:102E1000E1F72696E3E00C94E52820912A018AE068
:102E2000289F900111242417350720F69F5F909367
:102E3000810202C09F3FD1F71B81112359F00E94EC
:102E400026159FEF11160CF491E0899F802D112417
:102E5000809385021C81112359F00E9426159FEF53
:102E600011160CF491E0899F802D11248093860225
:102E700030918502332309F49DCF209186022223CD
:102E800009F498CF45EB3403C0011124992359F07C
:102E90009093850245EB240390011124332339F0EC
:102EA0003093860287CF81E080938502F3CF81E063
:102EB000809386027FCF209126018AE0289F90018F
:102EC00011242417350708F08BCF9F5F9093800261
:102ED00002C09F3FD1F71D81112359F00E94641554
:102EE0009FEF11160CF491E0899F802D112480939F
:102EF00087021E81112359F00E9464159FEF11165D
:102F00000CF491E0899F802D1124809388023091E8
:102F10008702332309F464CF20918802222309F425
:102F20005FCF45EB3403C0011124992359F09093EE
:102F3000870245EB240390011124332339F03093A9
:102F400088024ECF81E080938702F3CF81E08093A7
:102F5000880246CFEF92FF920F931F93CF93DF9398
:102F6000EB01E82FD1110EC0442321F0F0E0E45230
:102F7000FD4FE4916E2F7E2F8E2FCDB7DEB7E6E0AA
:102F80000C94E2280D2F10E0282F30E0442329F084
:102F900024523D4FF901249130E0F6E0CF9FC0016B
:102FA0001124EFEFF0E0BF010E948C28AB018C2FC1
:102FB00090E0880F991FA5E5A49FB001A59F700D13
:102FC0001124861B970B982F990F980FBF01601B38
:102FD000710B629FD001639FB00D729FB00D1124E1
:102FE0008B2F9D9FB0011124672F7727EF01C61B00
:102FF000D70BBE01629FE001639FD00D729FD00D81
:1030000011247F01E91AF108E09EB001E19E700DE4
:10301000F09E700D1124672F7727E61BF70BE29FB8
:103020008001E39F100DF29F100D1124E12F722FEC
:103030004230510599F048F44115510569F041308D
:10304000510581F0EB2F8D2F07C04430510569F0F9
:1030500080F046305105B1F76E2F8FCFE22F7B2FD6
:10306000812FFACFE22F7D2FF7CFEB2F822F712FF9
:10307000F3CF7B2F822FED2FEFCF41E00E94AA17D5
:1030800008950E943D180895CF93DF93762FE901AC
:10309000682F842F0E944118798368838A83DF9187
:1030A000CF9108958091C402982F9E7F39F480912A
:1030B000C402817082608093C40208958430B8F79E
:1030C000089588E090E00E940F290895CF92DF9242
:1030D000EF92FF926B017C010E945218B701A6018A
:1030E00088E090E00E942D29FF90EF90DF90CF9034
:1030F0000895E4ECF2E083E0808311828FEF828315
:1031000083831482AAE8B2E012968C9112978360AE
:1031100012968C9360817181828193810E946618DE
:1031200008959091C802933018F49F5F9093C8025D
:10313000882351F06091C4027091C5028091C6024B
:103140009091C7020E946618089581E00E9491182C
:1031500008959091C802992319F091509093C80254
:10316000882351F06091C4027091C5028091C6021B
:103170009091C7020E946618089581E00E94A918E4
:10318000089570E00E94F61A089560912C018091D4
:10319000C40280FF0BC080912B0123E0829FC001FD
:1031A000112487539D4F0E94C118089580912D01CD
:1031B00090912E0123E0829FF0011124E753FD4FEF
:1031C000891748F71182108212828F5F3396F8CFE9
:1031D000E4ECF2E080818E7F808360817181828166
:1031E00093810E946618EAE8F2E08281816082831E
:1031F0000E94C5180895E4ECF2E080818E7F808300
:10320000EAE8F2E08281816082830E94C518089515
:103210009091C40290FF0EC090912D0120912E013B
:1032200033E0939FF0011124E753FD4F921718F0FC
:103230000E94C51808958183608342839F5F3396FF
:10324000F5CFA3E0B0E0E7E2F9E10C94C628F82E50
:10325000062F142FE22E8091C40280FF3BC0909174
:10326000C5029F1108C09091C602961304C09091A8
:10327000C702941729F090918C02926090938C026F
:10328000E82FE695F0E0E754FE4F908190938A0294
:103290008E7F823069F49E012F5F3F4F412F602F58
:1032A0008F2D0E9444184B8169818A810E940819E0
:1032B000F092C5020093C6021093C702EE2051F0AF
:1032C0006091C4027091C5028091C6029091C702BC
:1032D0000E9466182396E6E00C94E228E4ECF2E003
:1032E0009181282F4381628188E0890F0E942119F2
:1032F000089581E00E946E190895E4ECF2E0918156
:10330000282F4381628188EF890F0E942119089537
:1033100081E00E947D190895E4ECF2E0628121E1F0
:10332000620F08F46FEF282F438181810E942119D9
:10333000089581E00E948C190895E4ECF2E0628126
:1033400021E1621B08F460E0282F438181810E9403
:103350002119089581E00E949D190895E4ECF2E09E
:10336000438121E1420F08F44FEF282F62818181D0
:103370000E942119089581E00E94AE190895E4EC9D
:10338000F2E0438121E1421B08F440E0282F6281F2
:1033900081810E942119089581E00E94BF1908953A
:1033A00020E00E94211908958091C40280FF1DC071
:1033B000817082608093C40280918C0281608093CE
:1033C0008C02662351F06091C4027091C502809115
:1033D000C6029091C7020E9466184091C702609190
:1033E000C6028091C5020E94D0190895682F81E01D
:1033F0000E94D419089581E00E94F6190895682F5B
:103400009091C40296958FEF890F09F481E00E9494
:10341000D419089581E00E94FF19089561E00E9487
:10342000D4190895E4ECF2E0808181608083869570
:103430000E940E1A08958091C40280FF03C00E946A
:10344000E81808950E94121A089560E00E94D419A5
:10345000089580918902811131C00E94270D811148
:1034600004C00E94B60D0E9479180E9461186093F2
:10347000C4027093C5028093C6029093C7028091E4
:103480008C02836080938C026E7F61F40E947918B5
:103490000E9461186093C4027093C5028093C602B3
:1034A0009093C7020E9452188091C40280FF03C00B
:1034B00086950E94251A81E08093890208951092D2
:1034C0008C02089525E0E4ECF2E0DC0101900D921D
:1034D0002A95E1F720918A0230918B0240918C026B
:1034E000FC0125833683478308951F93CF93DF9391
:1034F000EC01162F8F8180FF0CC0888180FF16C0E1
:103500008091C40281608093C402888186950E9464
:10351000D4198F8181FF06C0212F4B816A81898157
:103520000E942119DF91CF911F9108950E94FB18ED
:10353000F0CFFA01811101C0FB01099508951F9395
:10354000CF93DF93EC01FB011281111110C00E9497
:10355000390C8272FE01E052F847E531F10508F0BE
:1035600043C0E35AF64D0C94B4280E941B1A812FD5
:10357000DF91CF911F9108954AE05AE16BEF79E115
:103580000E94991AF4CF4BEF59E16AE07AE1F8CF43
:1035900048E859E169E779E1F3CF49E759E168E89B
:1035A00079E1EECF4AEA59E169E979E1E9CF49E900
:1035B00059E16AEA79E1E4CF4CEC59E16BEB79E14E
:1035C000DFCF4BEB59E16CEC79E1DACF4DEB58E111
:1035D00065EA78E1D5CF45EA58E16DEB78E1D0CFE7
:1035E00081E00E940E1AC3CF11E0C1CF539A4BB1B4
:1035F000477F5BB15860EFB7F8949B01220F331FF0
:10360000260F371F280F391F2817390741F4EFBF3E
:103610008FE594E00197F1F700C000000895DC0108
:103620006D91CD0178E05BB9000000C067FF4BB938
:10363000660F000000C000C000C04BB900C07A9502
:1036400091F7E2CF0895FC01680F791F8FEF91E3A6
:10365000E617F70709F408952191822728E030E062
:1036600087FF06C0880F892721503109C9F7F0CF9D
:10367000880FFACFCF93DF93EC01FB01828188237F
:1036800009F4D2C09E0130572332310508F0B2C090
:103690000E943C0D9093AD028093AC02FE01E1507C
:1036A000F047E232F10520F4EE58F64D0C94B428C0
:1036B0008091AC0281608093AC0293C08091AD0296
:1036C00088608093AD028DC08091AC028260F3CFA0
:1036D0008091AC028460EFCF8091AC028860EBCF28
:1036E0008091AD028160EDCF8091AD028260E9CF23
:1036F0008091AC028061DFCF8091AC028062DBCF31
:103700008091AC028064D7CF0E9492078091AC0276
:103710008068D1CF8091AC028C60CDCF8091AD021A
:103720008360CFCF8091AC028E7FC5CF8091AD02F8
:10373000877FC7CF8091AC028D7FBDCF8091AC02D7
:103740008B7FB9CF8091AC02877FB5CF8091AD02DE
:103750008E7FB7CF8091AD028D7FB3CF8091AC02C9
:103760008F7EA9CF8091AC028F7DA5CF8091AC02D6
:103770008F7BA1CF0E9492078091AC028F779BCF65
:103780008091AC02837F97CF8091AD028C7F99CFDF
:103790008091AC0282FB992790F921E0922790FB5F
:1037A00082F990FB83F987CF8091AD02982F909595
:1037B00091708E7F892B90FB81F983CF9091AC0221
:1037C000892F8F7B96FF806476CF0E94920790911D
:1037D000AC02892F97FB87F980586DCF81E00E945A
:1037E000B90D8091AC029091AD020E94410D0E94F2
:1037F000920780E0DF91CF91089580E0F0CF909123
:10380000AC02892F8F7E94FF806155CF9091AC02DE
:10381000892F8E7F90FF81604ECF9091AD02892FCE
:10382000877F93FF88604DCF81E0E4CF8B3109F42F
:1038300065C040F58B3071F078F4863009F447C0EC
:1038400020F4853059F180E00895873009F448C0AC
:103850008830C9F781E00895803109F45DC068F4CB
:103860008E3089F790914C02892F8B7F92FF846074
:1038700080934C0282FD4CC0EDCF863159F38931E3
:1038800049F3E1CF8A3201F160F48732B1F020F4DC
:103890008E31C8F28D514CC08932A9F60E942203A4
:1038A000D9CF833440F48A3308F041C0853329F0FE
:1038B000883381F2C8CF833431F681E090E00E94F2
:1038C000E5070E949207C6CF0E94B60DC3CF809134
:1038D0004C02807F80934C0281E080939002089597
:1038E00090914C02892F8E7F90FF816080934C02D3
:1038F00080FDB0CF817F80934C02ACCF90914C0281
:10390000892F8D7F91FF826080934C0281FFA2CF2F
:1039100080914C028160EFCF90914C02892F877F7C
:1039200093FF886080934C0283FDF2CF93CF89533D
:1039300021E030E0A90102C0440F551F8A95E2F74B
:10394000CA01BDCF80E008950E94A21C0895CF93C4
:10395000C82F809190028130B9F0882331F08230F5
:10396000A1F11092900280E00DC00E94390C8232C9
:10397000D1F78C2F0E94A21C81111BC08C2F0E949A
:10398000161C8170CF9108950E94390C823289F300
:103990008C2F0E94A41C81110AC0C43199F060F4DC
:1039A000CB3029F0C03169F782E08093900281E04A
:1039B000E8CF81E090E0E5CFC93221F0C833B9F318
:1039C00080E0DFCF10929002FBCFC93209F440C0F3
:1039D000F0F4C431E9F1A8F481E0C73099F680939E
:1039E0002A0184E1809329018AE0809328018EE1F5
:1039F0008093270188E08093240188E2809323014B
:103A000004C082EE8C0F8A3070F181E0BBCFC035EC
:103A100009F450C0B8F48AE0CF34B9F7E0918D02D0
:103A2000F0918E02309789F32081082E000C990BBB
:103A3000820F911D8F3F910509F00CF43FC08FEF6D
:103A40008083E3CFC135C1F181E0C23539F39ACF2C
:103A500080918F028823C9F210928F0210928E02F9
:103A600010928D02D2CFCD51C0938F02C330C9F0D6
:103A700048F4C13099F089E291E0C23051F01092DF
:103A80008F02C3CFC53099F078F083E291E0C63061
:103A9000B1F790938E0280938D02B7CF8AE291E0C6
:103AA000F8CF88E291E0F5CF87E291E0F2CF84E2AF
:103AB00091E0EFCF86EFB2CF8FEFB0CF97FFC0CFBF
:103AC0001082A3CFCF93DF93EB0186319C4711F592
:103AD0000E94390C9A81992399F08A7A91E009F42D
:103AE00090E090939102811109C089E20E94110C2B
:103AF0000E947A0C80E0DF91CF91089585E3F6CFA4
:103B000080919102811104C089E20E94190CF0CFCA
:103B100085E3FBCF81E0EFCF0F931F93CF93DF932C
:103B2000C42FD22FFC0182818823C9F040939402D4
:103B30000E947321909393028093920280E28C0FF3
:103B4000883040F4C77081E001C0880FCA95EAF759
:103B50000E942805DF91CF911F910F910895109138
:103B60009402141332C080919202909193020E94A9
:103B70008B21883C910548F5C0E2CD0F1D17B9F0A7
:103B800080E2810F883040F4177081E001C0880F17
:103B90001A95EAF70E942F05C83048F481E09D2F5E
:103BA000977001C0880F9A95EAF70E942805802F28
:103BB0000E941F05C83070F6D77081E001C0880FE1
:103BC000DA95EAF70E942F05C5CF80E28C0F883086
:103BD00008F6C77081E001C0880FCA95EAF7F2CFF6
:103BE0000F93DB0188519C4787309105A0F5FC01BC
:103BF000EC56F64D0C94B42806E221EE41EE6AE153
:103C00007CE7CD010E948C1D80E00F91089507E2B2
:103C100025EE45EE6BE17CE7F4CF06E221EE40EEC7
:103C200068E17CE7EECF07E225EE44EE69E17CE750
:103C3000E8CF06E221EE42EE6CE17CE7E2CF07E25C
:103C400025EE46EE6DE17CE7DCCF08E221E045EEB3
:103C50006EE17CE7D6CF12968C91882319F01092F2
:103C60009402D3CF81E0D1CF8EE1489B02C0815036
:103C7000E1F7489BFECF0895589880E28A95F1F7C6
:103C8000589A0895FC013BE03A95F1F798E020E05E
:103C900080E031E040E14A95F1F7880F489B02C08F
:103CA0008160232742E04A95F1F7000040E14A9500
:103CB000F1F7915079F790E19A95F1F799B132E0E7
:103CC0003A95F1F7000040E14A95F1F7917092279B
:103CD0002081920F90830895A1E0B0E0E2E7FEE139
:103CE0000C94C62819828C017C01E60EF11C0E157D
:103CF0001F0541F481E09981911180E02196E6E071
:103D00000C94E2280E94341ECE0101960E94421EAD
:103D1000F80181938F01EBCF509A589A08955098EB
:103D2000589AE89AE9E6F0E080818C7F80830895D4
:103D30006150770B91E001C0990F6A95EAF720E096
:103D400031E0911108C0222391F0589A80E28A95BF
:103D5000F1F758980895492F482339F0589A2327A6
:103D600040E24A95F1F79695ECCF5898F9CF5898DC
:103D7000EDCFFF920F931F93CF93DF93EC018C0154
:103D8000060F111DC017D10729F4CDB7DEB7E5E046
:103D90000C94E328F9900E943C1E68E08F2D0E944D
:103DA000981EF0CF1F920F920FB60F9211240F930F
:103DB0001F932F933F934F935F936F937F938F93B3
:103DC0009F93AF93BF93EF93FF93CF93DF930F92A4
:103DD000CDB7DEB719820E94341ECE0101960E9433
:103DE000421E082F069506950695282F22952570C8
:103DF000902F9570290F922F937026952695920FEC
:103E0000982797708981982B09F05CC0053008F0DD
:103E100059C080E18A95F1F7589A509A82E08A95C4
:103E2000F1F700C0589888E0089F80011124D8015C
:103E3000AD5FBE4F1696ED91FC9117973097A9F0A4
:103E40006091B7017091B80114962D913C9115972E
:103E5000260F371F11968D919C911297680F791F2D
:103E600013964C9113978C910995F801ED5FFE4FD5
:103E70006381662351F02091B7013091B8018481AC
:103E80009581820F931F0E94B91E0E943C1E80E103
:103E90008A95F1F758985098589A80E18A95F1F7E9
:103EA000F801ED5FFE4F6081662351F02091B7016C
:103EB0003091B80181819281820F931F0E946C1E04
:103EC0000E94341E0F90DF91CF91FF91EF91BF912F
:103ED000AF919F918F917F916F915F914F913F91A2
:103EE0002F911F910F910F900FBE0F901F9018955B
:103EF0000F931F93CF93DF93EC0105970CF04CC009
:103F0000F894509A589885E08A95F1F700009C2F14
:103F1000969595708C2F8570980F892F8370969544
:103F2000969523E0CC0FDD1F2A95E1F7980F8E01BF
:103F3000092B0E943C1E00C068E0802F0E94981E42
:103F400080E18A95F1F75098589A489B1EC087E007
:103F500090E048991CC0FE01ED5FFE4F638166232F
:103F6000F9F02091B7013091B80184819581820FD9
:103F7000931F0E946C1E811113C0509A589A789416
:103F8000DF91CF911F910F91089500C0DECF01976F
:103F900029F4509A589A789480E0F2CF00C0D9CF93
:103FA0000E94341E80E28A95F1F75898509A80E179
:103FB0008A95F1F7CD5FDE4F6881662351F020913D
:103FC000B7013091B80189819A81820F931F0E94B5
:103FD000B91E0E943C1E789481E0D2CF9093BD011F
:103FE0008093BC01089590939B0280939A02089558
:103FF0000E94BB12811103C0809195020895E09147
:104000009A02F0919B02309729F00190F081E02D07
:104010000995089580E00895E0919A02F0919B023D
:10402000309721F00280F381E02D09950895E09109
:104030009A02F0919B02309739F022E0DC012C9338
:104040000480F581E02D09950895A3E0B0E0EBE24E
:10405000F0E20C94CA282091980230919902281716
:104060003907A1F09093990280939802E0919A0207
:10407000F0919B02309751F023E029839B838A8340
:104080000680F781E02DCE01019609952396E2E0A6
:104090000C94E628A3E0B0E0E0E5F0E20C94CA2836
:1040A000209196023091970228173907A1F090933A
:1040B000970280939602E0919A02F0919B023097CA
:1040C00051F024E029839B838A830680F781E02DC9
:1040D000CE01019609952396E2E00C94E6289C0116
:1040E0002E5F3F4FAC01485F5F4F80E024173507DC
:1040F00009F40895F90191919F019923B9F38F5F14
:10410000F5CF662349F0FC013296089621912617D7
:1041100029F0E817F907D1F780E0089581E00895C4
:104120009C01FC0132969FEF80E04191461751F0CF
:104130009F3F19F4411101C0982F8F5F8630A9F776
:104140009F3F09F40895290F311D97FD3A95F90114
:1041500062830895FC01329608962191261303C0CC
:10416000DF0111971C92E817F907B9F708950E942B
:10417000902008950E94AA200895029626E0FC014E
:1041800011922A95E9F7089546E050E00E94F1283F
:1041900021E0892B09F420E0822F089508950E94E0
:1041A000CE200895811106C081E080939C020E9478
:1041B000CF20089582E0F9CF83E080939C020E9493
:1041C000CF2008950E94D220089581E080939C0220
:1041D0000E94CF2008950E94E52008950895089533
:1041E0000E94EF200895089508950E94EE200895FA
:1041F000CF930E94F3200E943F120E94F420C0E05F
:104200008C2F0E941811811105C0CF5FCA30C1F7F1
:10421000CF91089581E0FCCF85B7806885BF85B7D1
:10422000806885BF08951F921FB61F9211248F9337
:104230009F93AF93BF9380919D02811113C0809192
:10424000F3029091F402A091F502B091F60241962A
:10425000A11DB11D8093F3029093F402A093F50287
:10426000B093F602BF91AF919F918F911F901FBEA7
:104270001F9018958091FB02843031F10E948803D1
:1042800010929D0288E190E020E40FB6F894A89582
:10429000809360000FBE2093600083B7817F8460AD
:1042A00083BF83B7816083BF7894889583B78E7FFF
:1042B00083BF0FB6F894A8958091600088618093C1
:1042C0006000109260000FBE08950E9492070E9445
:1042D0008D03089582E084BD93E095BD9AEF97BD6C
:1042E00080936E0008952FB7F8948091F302909117
:1042F000F402A091F502B091F6022FBF08952FB7F6
:10430000F8946091F3027091F4028091F50290911B
:10431000F6022FBF08959C014FB7F8948091F302E5
:104320009091F402A091F502B091F6024FBF821B6A
:10433000930B0895CF92DF92EF92FF922FB7F894EC
:10434000C090F302D090F402E090F502F090F602F3
:104350002FBFA7019601261B370B480B590BCA012B
:10436000B901FF90EF90DF90CF90089578941F925D
:104370001FB61F9211248F939F93AF93BF93809189
:10438000F3029091F402A091F502B091F602019629
:10439000A11DB11D8093F3029093F402A093F50246
:1043A000B093F602BF91AF919F918F911F901FBE66
:1043B0001F90189587E797E790930108809300086E
:1043C00088E19AE00FB6F894A895809360000FBE3C
:1043D00090936000FFCF88E19AE00FB6F894A8951B
:1043E000809360000FBE90936000FFCF8091A60283
:1043F00008959B01BA019091FB029430E9F48F700B
:104400008093E9009FEF8091E800915085FD06C000
:1044100085ED8A95F1F700009111F5CF8091E800C4
:1044200085FF0AC050E040E0C9010E94F32380915B
:10443000E8008E778093E800089543E050E0BC01E7
:1044400082E00E94F921089546E050E0BC0182E03C
:104450000E94F9210895CF93DF93EC0148E050E0EA
:10446000BC0181E00E94F92188E0FE01AEE9B2E0E2
:1044700001900D928A95E1F7DF91CF910895809197
:10448000FA02811109C00E9483250E94E0258091D3
:10449000E20084608093E20008951092FA02089589
:1044A0000E94E52008956091F70281E0611101C04A
:1044B00080E00E94DC2008959091FB0281E094301E
:1044C00009F080E06091F7020E94E220089542E046
:1044D00061EC81E00E94FF2442E261EC82E00E94F4
:1044E000FF249091FB0281E0943009F080E060911C
:1044F000F7020E94D22008958091FD02833009F4D2
:1045000061C030F48130D1F1823009F49EC0089549
:104510008A3009F48AC08B3009F46FC0893009F001
:1045200050C08091FC02813209F04BC080910003A1
:1045300090910103029708F044C08091E800877FC2
:104540008093E8008091E80082FF37C09091F300EB
:104550008091F200029731F48091F100813011F0E6
:10456000863021F48091F1008093A6028091E800CA
:104570008B778093E8000E94332523C08091FC0252
:10458000813AF9F48091E800877F8093E800809178
:10459000000390910103892B61F468E08EE992E0B9
:1045A00070E00E9442248091E8008B778093E800BD
:1045B000089560E090E080E0F3CF8091FB028111EC
:1045C000C1CF08958091FC02813AD9F78091000310
:1045D00090910103892BA9F78091E800877F809350
:1045E000E8008091E80080FFFCCF80913801809343
:1045F000F1008091E8008E77BCCF8091FC0281327F
:1046000001F78091000390910103892BD1F68091ED
:10461000E800877F8093E8000E9433258091FE02A6
:10462000809338010E94920708958091FC028132A4
:1046300041F68091E800877F8093E8000E9433254F
:104640008091FF028093A70208958091FC02813A35
:1046500009F0B7CF8091E800877F8093E8008091D0
:10466000E80080FFFCCF8091A702C1CF84B7877F8D
:1046700084BF0FB6F894A8958091600088618093FC
:104680006000109260000FBE80E890E00FB6F894D2
:1046900080936100909361000FBE0E94EB2008950B
:1046A0000E9483250E94E025E2EEF0E08081846094
:1046B000808378940E945F28089580E391E00E94AF
:1046C000F31F08958091FB02853031F48091FB0245
:1046D000853019F00E94652108950E943A21809149
:1046E000F902882399F30E94F820882379F30E9425
:1046F000DD230E949207EACF08959A0140910203B8
:10470000509103030E9485230895492F5527433074
:10471000510519F168F44130510509F444C04230A3
:10472000510509F445C090E080E050E040E025C02C
:104730004132510549F142325105A9F780E490E038
:104740004CEC54E061157105C1F08BE790E041E558
:1047500054E06130710589F0E6CF992781309105E9
:1047600081F0009729F00297F1F6ECEDF3E002C03A
:10477000E0E0F4E0849190E0AF01F90151834083DF
:104780000895EAEEF3E0F6CF89E090E046E154E0E8
:104790006115710591F389E090E04FE254E06130DA
:1047A000710559F3C0CF82E190E04FE354E0E5CFCB
:1047B0008BE390E044E054E0E0CF80E189BD82E10A
:1047C00089BD09B400FEFDCF8091D8008F7D809314
:1047D000D8008091E00082608093E0008091E0004A
:1047E00081FDFCCF0895AF92BF92CF92DF92FF92EE
:1047F0000F931F93CF93DF936C01EB018A010E940B
:104800005225F82E811123C00115110539F0F80148
:1048100080819181C81BD90BC80ED91EB12CA12C47
:104820002097A9F08091E80085FD22C08091E800E2
:104830008E778093E80001151105A1F0F8018081C1
:104840009181A80EB91EB182A08285E0F82E8F2D2D
:10485000DF91CF911F910F91FF90DF90CF90BF908C
:10486000AF9008950E9452258823D1F2F82EEFCF01
:10487000F60181916F018093F1002197FFEFAF1A4C
:10488000BF0ACECFFC0180910203909103038617EB
:104890009707A0F06115710529F49091E8009E77C3
:1048A0009093E80090E06115710551F4911108C0F2
:1048B0008091E80082FF34C080E00895BC01F2CF0F
:1048C0008091FB028823C1F18530C1F18091E8001D
:1048D00083FD30C08091E80082FDEACF8091E8003E
:1048E00080FFE1CF8091F3002091F200382F611515
:1048F000710519F02830310558F091E02830310564
:1049000009F090E02091E8002E772093E800CBCFCB
:1049100081918093F100615071092F5F3F4FE7CF84
:104920008091FB02882341F0853041F08091E800BE
:1049300083FFBECF81E0089582E0089583E008956B
:10494000FC01809102039091030386179707A0F062
:104950006115710529F48091E8008E778093E80055
:1049600090E06115710551F4911108C08091E80043
:1049700082FF35C080E00895BC01F2CF8091FB0238
:104980008823C9F18530C9F18091E80083FD31C0E9
:104990008091E80082FDEACF8091E80080FFE1CFBE
:1049A0008091F3002091F200382F6115710519F004
:1049B0002830310558F091E02830310509F090E0B9
:1049C0008091E8008E778093E800CBCF849180932C
:1049D000F1003196615071092F5F3F4FE6CF809112
:1049E000FB02882341F0853041F08091E80083FF8D
:1049F000BDCF81E0089582E0089583E00895982F67
:104A0000973028F08F708093E90081E008959093AB
:104A1000E900242F762F50E0981731F07091EC00C8
:104A20002091ED005091F00021FD02C09F5FE8CF82
:104A30003091EB003E7F3093EB003091ED003D7FF5
:104A40003093ED003091EB0031603093EB007093C8
:104A5000EC002093ED005093F0002091EE0027FD34
:104A6000E5CF80E008958091FC0287FF13C080911C
:104A7000E80082FF06C08091E8008B778093E80011
:104A800004C08091FB028111F2CF08958091FB0256
:104A90008823D9F38091E80080FFF8CF8091E80067
:104AA0008E77ECCF2091E4003091E50095E6A901E6
:104AB0002091EC00822F817020FF06C08091E800D9
:104AC00080FF06C080E008952091E80022FD1AC012
:104AD0008091FB02882389F0853089F08091EB007A
:104AE00085FD0FC02091E4003091E5004217530787
:104AF000F9F29150E1F684E0089582E0089583E0B0
:104B0000089581E008950E94F2250E94FA25E0EEC2
:104B1000F0E0808181608083E8EDF0E080818F7734
:104B2000808319BCA7EDB0E08C918E7F8C9380813F
:104B30008F7E80831092FA0208950F931F93CF9374
:104B4000DF930E94F2250E94FA25C8EDD0E088810B
:104B50008F77888388818068888388818F7D888328
:104B600019BC1092FB021092F7021092F9021092F7
:104B7000F80200EE10E0F80180818B7F808388814D
:104B80008160888342E060E080E00E94FF24E1EEE3
:104B9000F0E080818E7F8083E2EEF0E080818160B2
:104BA0008083808188608083F80180818E7F80830C
:104BB000888180618883DF91CF911F910F91089543
:104BC000E8EDF0E080818F7E8083E7EDF0E080818A
:104BD0008160808384E082BF81E08093FA020E943A
:104BE0009D250895E8EDF0E080818E7F808310920E
:104BF000E20008951092DA001092E10008951F92E9
:104C00000F920FB60F9211242F933F934F935F9300
:104C10006F937F938F939F93AF93BF93EF93FF9384
:104C20008091E10082FF0BC08091E20082FF07C00B
:104C30008091E1008B7F8093E1000E945E2880914B
:104C4000DA0080FF19C08091D80080FF15C08091E4
:104C5000DA008E7F8093DA008091D90080FF96C0C1
:104C600080E189BD82E189BD09B400FEFDCF81E00C
:104C70008093FB020E943F228091E10080FF19C0D7
:104C80008091E20080FF15C08091E2008E7F8093CA
:104C9000E2008091E20080618093E2008091D80080
:104CA00080628093D80019BC85E08093FB020E944B
:104CB00053228091E10084FF2BC08091E20084FFA9
:104CC00027C080E189BD82E189BD89B5982F9170A7
:104CD00080FFFBCF8091D8008F7D8093D80080919A
:104CE000E1008F7E8093E1008091E2008F7E8093CF
:104CF000E2008091E20081608093E2008091F702FF
:104D0000882309F449C084E08093FB020E945C225E
:104D10008091E10083FF29C08091E20083FF25C0DC
:104D20008091E100877F8093E10082E08093FB0225
:104D30001092F7028091E1008E7F8093E1008091D4
:104D4000E2008E7F8093E2008091E2008061809398
:104D5000E20042E060E080E00E94FF248091F000E9
:104D600088608093F0000E945022FF91EF91BF91E4
:104D7000AF919F918F917F916F915F914F913F91F3
:104D80002F910F900FBE0F901F90189519BC109285
:104D9000FB020E944D2270CF8091E30087FD93E0DB
:104DA0009093FB02B3CF1F920F920FB60F92112474
:104DB0002F933F934F935F936F937F938F939F9323
:104DC000AF93BF93CF93DF93EF93FF93D091E9001D
:104DD000DF708091EC00C82FC17080FDC0E8109298
:104DE000E9008091F000877F8093F00078940E9422
:104DF00017271092E9008091F00088608093F000FE
:104E0000CD2BCF70C093E900FF91EF91DF91CF914F
:104E1000BF91AF919F918F917F916F915F914F91D2
:104E20003F912F910F900FBE0F901F901895AAE2FF
:104E3000B0E0EDE1F7E20C94C9288CEF92E020910C
:104E4000F100FC012193CF01F3E084309F07B9F713
:104E50000E947C228091E80083FF1EC18091FC02A9
:104E60009091FD029A3008F017C1E92FF0E0E55665
:104E7000F64D0C94B428803899F0823809F00CC1B2
:104E8000809100038F70873008F006C18093E9009D
:104E90008091EB0085FB882780F91092E90006C01D
:104EA0008091F8029091F902911182609091E8004E
:104EB000977F9093E8008093F1001092F100809129
:104EC000E8008E77E5C0882309F4D3C0823009F06A
:104ED000E3C08091FE028111D6C0809100038F70E3
:104EE0002FEF280F263008F0D7C08093E9002091DB
:104EF000EB0020FFC8C0933031F48091EB0080625A
:104F00008093EB00C0C09091EB0090619093EB0018
:104F100021E030E001C0220F8A95EAF72093EA00F1
:104F20001092EA008091EB008860EACF8111B4C052
:104F30001091FE021F778091E3008078812B80938F
:104F4000E3008091E800877F8093E8000E9433258A
:104F50008091E80080FFFCCF8091E300806880931F
:104F6000E30082E0111183E08093FB0295C080583A
:104F7000823008F091C08091FE029091FF028C3D3A
:104F800023E09207A1F583E08A838AE289834FB701
:104F9000F894DE01139620E03EE051E2E32FF0E0CA
:104FA00050935700E49120FF03C0E295EF703F5FFC
:104FB000EF708E2F90E0EA30C0F0C7968D939D93EE
:104FC0002F5F243159F74FBF8091E800877F80938E
:104FD000E8006AE270E0CE0101960E9442248091CE
:104FE000E8008B778093E80057C0C096E7CF6091C8
:104FF000000370910103AE014F5F5F4F0E947D235C
:10500000BC01892B09F448C09091E800977F9093E8
:10501000E80089819A810E94A024E1CF8038E1F5DF
:105020008091E800877F8093E8008091F702809369
:10503000F10045CF811130C09091FE02923060F5B1
:105040008091E800877F8093E8009093F7020E94A8
:1050500033258091F702882311F084E005C0809108
:10506000E30087FDFACF81E08093FB020E94672274
:1050700013C08091FE02813079F481E0933009F011
:1050800080E08093F9021092E9008091E800877F28
:105090008093E8000E9433258091E80083FF0AC0D6
:1050A0008091E800877F8093E8008091EB00806228
:1050B0008093EB00AA96E3E00C94E5280895CF9343
:1050C0008091FB028823A1F0C091E900CF709091FC
:1050D000EC00892F817090FD80E8C82B1092E900C8
:1050E0008091E80083FD0E941727CF70C093E900EC
:1050F000CF9108950E9483251092FB020895E8ED58
:10510000F0E08081806180838AE18A95F1F700C0B8
:105110008091D90081700895AA1BBB1B51E107C083
:10512000AA1FBB1FA617B70710F0A61BB70B881F37
:10513000991F5A95A9F780959095BC01CD010895C6
:1051400097FB072E16F4009407D077FD09D00E9434
:105150008C2807FC05D03EF4909581959F4F0895CB
:10516000709561957F4F0895EE0FFF1F0590F491A4
:10517000E02D09942F923F924F925F926F927F920F
:105180008F929F92AF92BF92CF92DF92EF92FF9257
:105190000F931F93CF93DF93CDB7DEB7CA1BDB0B03
:1051A0000FB6F894DEBF0FBECDBF09942A883988A8
:1051B00048885F846E847D848C849B84AA84B984AF
:1051C000C884DF80EE80FD800C811B81AA81B981BB
:1051D000CE0FD11D0FB6F894DEBF0FBECDBFED01CF
:1051E0000895FB01DC0104C08D910190801921F428
:1051F00041505040C8F7881B990B0895FB01DC0112
:1052000002C001900D9241505040D8F70895F9998D
:10521000FECF92BD81BDF89A992780B50895A6E189
:10522000B0E044E050E00C944129A8E1B0E042E055
:1052300050E00C944129262FF999FECF92BD81BDF3
:10524000F89A019700B4021639F01FBA20BD0FB6C4
:10525000F894FA9AF99A0FBE08950396272F0E94A0
:105260001C290E941B29252F0E941C29242F0C94E5
:105270001C290196272F0E941C290C941B29DC0154
:10528000CB01FC01F999FECF06C0F2BDE1BDF89A51
:10529000319600B40D9241505040B8F70895F894FB
:1052A000FFCF75057505C605C60539065506A40563
:1052B000A4055A06CB06DA06DA06B51ABC1AC31AD2
:1052C000C81ACD1AD21AD71ADC1AE11AE61AEB1A42
:1052D000F01AB71AB71AB71AB71AB71AB71AB71A0D
:1052E000B71AB71A921B061C9A1B641B681B9E1BDD
:1052F0006C1BA21BAE1B781BFF1B7C1BB21B801BF5
:10530000B61BDE1B841BBA1BE51B8A1BC01BC81BFC
:10531000701BA61B741BAA1B8E1BC41BD41BEE1B6D
:10532000FD1B5E1B961B0D1C0D1E131EFC1D071E78
:10533000191E1F1E251E3B2763274C2863274C2858
:0A5340009627B7274C280E281A28DC
:10534A002E0201000000010000000000000005011B
:10535A000000000406000000000000080A00000027
:10536A00000000280850011E0A1401000E000E0E4B
:10537A00F6212B2224221D2201E200E900EA00B5CF
:10538A0000B600B700CD008301CC008A01920194D7
:10539A00012102230224022502260227022A02B33D
:1053AA0000B4006F0070009F01CB019F02A0028130
:1053BA008283E200E900EA00B500B600B700CD003A
:1053CA008301CC008A019201940121022302240262
:1053DA002502260227022A02B300B4006F007000D9
:1053EA009F01CB019F02A002818283F5F6F7313338
:0C53FA0032369497C6343555020001008D
:00000001FF
